{
  "address": "0x7f87D860f8Ab01DF6b6D802b5ea5D30d07F0096F",
  "abi": [
    {
      "anonymous": false,
      "inputs": [
        {
          "indexed": false,
          "internalType": "address",
          "name": "donateEntry",
          "type": "address"
        },
        {
          "indexed": false,
          "internalType": "address",
          "name": "owner",
          "type": "address"
        }
      ],
      "name": "EntryCreated",
      "type": "event"
    },
    {
      "inputs": [
        {
          "internalType": "string",
          "name": "cid",
          "type": "string"
        },
        {
          "internalType": "uint256",
          "name": "goal",
          "type": "uint256"
        }
      ],
      "name": "createEntry",
      "outputs": [
        {
          "internalType": "address",
          "name": "",
          "type": "address"
        }
      ],
      "stateMutability": "nonpayable",
      "type": "function"
    }
  ],
  "transactionHash": "0x8285d5f2359c9c43d3c7db6620140f9640328b771146fe96c40397b5d8adffd8",
  "args": [],
  "numDeployments": 5,
  "solcInputHash": "27e5412137eb0ac54b388a3fe5ef4e63",
  "bytecode": "0x608060405234801561001057600080fd5b50611082806100206000396000f3fe60806040523480156200001157600080fd5b50600436106200002e5760003560e01c8063e6af705f1462000033575b600080fd5b6200005160048036038101906200004b9190620002af565b62000069565b6040516200006091906200035a565b60405180910390f35b6000803384846040516200007d90620000f0565b6200008b939291906200041b565b604051809103906000f080158015620000a8573d6000803e3d6000fd5b5090507fa7ffa842875713b0df6f841bd6349d688510d7ddbb81964f14cccd51b4913cbe8133604051620000de9291906200045f565b60405180910390a18091505092915050565b610bc0806200048d83390190565b6000604051905090565b600080fd5b600080fd5b600080fd5b600080fd5b6000601f19601f8301169050919050565b7f4e487b7100000000000000000000000000000000000000000000000000000000600052604160045260246000fd5b62000167826200011c565b810181811067ffffffffffffffff821117156200018957620001886200012d565b5b80604052505050565b60006200019e620000fe565b9050620001ac82826200015c565b919050565b600067ffffffffffffffff821115620001cf57620001ce6200012d565b5b620001da826200011c565b9050602081019050919050565b82818337600083830152505050565b60006200020d6200020784620001b1565b62000192565b9050828152602081018484840111156200022c576200022b62000117565b5b62000239848285620001e7565b509392505050565b600082601f83011262000259576200025862000112565b5b81356200026b848260208601620001f6565b91505092915050565b6000819050919050565b620002898162000274565b81146200029557600080fd5b50565b600081359050620002a9816200027e565b92915050565b60008060408385031215620002c957620002c862000108565b5b600083013567ffffffffffffffff811115620002ea57620002e96200010d565b5b620002f88582860162000241565b92505060206200030b8582860162000298565b9150509250929050565b600073ffffffffffffffffffffffffffffffffffffffff82169050919050565b6000620003428262000315565b9050919050565b620003548162000335565b82525050565b600060208201905062000371600083018462000349565b92915050565b600081519050919050565b600082825260208201905092915050565b60005b83811015620003b357808201518184015260208101905062000396565b83811115620003c3576000848401525b50505050565b6000620003d68262000377565b620003e2818562000382565b9350620003f481856020860162000393565b620003ff816200011c565b840191505092915050565b620004158162000274565b82525050565b600060608201905062000432600083018662000349565b8181036020830152620004468185620003c9565b90506200045760408301846200040a565b949350505050565b600060408201905062000476600083018562000349565b62000485602083018462000349565b939250505056fe60c06040523480156200001157600080fd5b5060405162000bc038038062000bc08339818101604052810190620000379190620003be565b600081141562000073576040517f16f3c52900000000000000000000000000000000000000000000000000000000815260040160405180910390fd5b8273ffffffffffffffffffffffffffffffffffffffff1660808173ffffffffffffffffffffffffffffffffffffffff16815250508160009080519060200190620000bf929190620000d1565b508060a081815250505050506200049e565b828054620000df9062000468565b90600052602060002090601f0160209004810192826200010357600085556200014f565b82601f106200011e57805160ff19168380011785556200014f565b828001600101855582156200014f579182015b828111156200014e57825182559160200191906001019062000131565b5b5090506200015e919062000162565b5090565b5b808211156200017d57600081600090555060010162000163565b5090565b6000604051905090565b600080fd5b600080fd5b600073ffffffffffffffffffffffffffffffffffffffff82169050919050565b6000620001c28262000195565b9050919050565b620001d481620001b5565b8114620001e057600080fd5b50565b600081519050620001f481620001c9565b92915050565b600080fd5b600080fd5b6000601f19601f8301169050919050565b7f4e487b7100000000000000000000000000000000000000000000000000000000600052604160045260246000fd5b6200024f8262000204565b810181811067ffffffffffffffff8211171562000271576200027062000215565b5b80604052505050565b60006200028662000181565b905062000294828262000244565b919050565b600067ffffffffffffffff821115620002b757620002b662000215565b5b620002c28262000204565b9050602081019050919050565b60005b83811015620002ef578082015181840152602081019050620002d2565b83811115620002ff576000848401525b50505050565b60006200031c620003168462000299565b6200027a565b9050828152602081018484840111156200033b576200033a620001ff565b5b62000348848285620002cf565b509392505050565b600082601f830112620003685762000367620001fa565b5b81516200037a84826020860162000305565b91505092915050565b6000819050919050565b620003988162000383565b8114620003a457600080fd5b50565b600081519050620003b8816200038d565b92915050565b600080600060608486031215620003da57620003d96200018b565b5b6000620003ea86828701620001e3565b935050602084015167ffffffffffffffff8111156200040e576200040d62000190565b5b6200041c8682870162000350565b92505060406200042f86828701620003a7565b9150509250925092565b7f4e487b7100000000000000000000000000000000000000000000000000000000600052602260045260246000fd5b600060028204905060018216806200048157607f821691505b6020821081141562000498576200049762000439565b5b50919050565b60805160a0516106ee620004d2600039600061030f015260008181610129015281816101b0015261025301526106ee6000f3fe6080604052600436106100555760003560e01c80633ccfd60b1461005a57806375f2616914610071578063893d20e81461009c578063b60d4288146100c7578063b97a7d24146100d1578063ca00c702146100fc575b600080fd5b34801561006657600080fd5b5061006f610127565b005b34801561007d57600080fd5b50610086610245565b60405161009391906103de565b60405180910390f35b3480156100a857600080fd5b506100b161024f565b6040516100be919061043a565b60405180910390f35b6100cf610277565b005b3480156100dd57600080fd5b506100e661030b565b6040516100f391906103de565b60405180910390f35b34801561010857600080fd5b50610111610333565b60405161011e91906104ee565b60405180910390f35b7f000000000000000000000000000000000000000000000000000000000000000073ffffffffffffffffffffffffffffffffffffffff163373ffffffffffffffffffffffffffffffffffffffff16146101ac576040517f30cd747100000000000000000000000000000000000000000000000000000000815260040160405180910390fd5b60007f000000000000000000000000000000000000000000000000000000000000000073ffffffffffffffffffffffffffffffffffffffff16476040516101f290610541565b60006040518083038185875af1925050503d806000811461022f576040519150601f19603f3d011682016040523d82523d6000602084013e610234565b606091505b505090508061024257600080fd5b50565b6000600154905090565b60007f0000000000000000000000000000000000000000000000000000000000000000905090565b60003414156102b2576040517fc6e0724200000000000000000000000000000000000000000000000000000000815260040160405180910390fd5b34600160008282546102c49190610585565b925050819055507fa695ab567fbde53c295fb2c5981c19ddcad2b37a84ddb040db80010012a34d0d33346000366040516103019493929190610617565b60405180910390a1565b60007f0000000000000000000000000000000000000000000000000000000000000000905090565b60606000805461034290610686565b80601f016020809104026020016040519081016040528092919081815260200182805461036e90610686565b80156103bb5780601f10610390576101008083540402835291602001916103bb565b820191906000526020600020905b81548152906001019060200180831161039e57829003601f168201915b5050505050905090565b6000819050919050565b6103d8816103c5565b82525050565b60006020820190506103f360008301846103cf565b92915050565b600073ffffffffffffffffffffffffffffffffffffffff82169050919050565b6000610424826103f9565b9050919050565b61043481610419565b82525050565b600060208201905061044f600083018461042b565b92915050565b600081519050919050565b600082825260208201905092915050565b60005b8381101561048f578082015181840152602081019050610474565b8381111561049e576000848401525b50505050565b6000601f19601f8301169050919050565b60006104c082610455565b6104ca8185610460565b93506104da818560208601610471565b6104e3816104a4565b840191505092915050565b6000602082019050818103600083015261050881846104b5565b905092915050565b600081905092915050565b50565b600061052b600083610510565b91506105368261051b565b600082019050919050565b600061054c8261051e565b9150819050919050565b7f4e487b7100000000000000000000000000000000000000000000000000000000600052601160045260246000fd5b6000610590826103c5565b915061059b836103c5565b9250827fffffffffffffffffffffffffffffffffffffffffffffffffffffffffffffffff038211156105d0576105cf610556565b5b828201905092915050565b82818337600083830152505050565b60006105f68385610460565b93506106038385846105db565b61060c836104a4565b840190509392505050565b600060608201905061062c600083018761042b565b61063960208301866103cf565b818103604083015261064c8184866105ea565b905095945050505050565b7f4e487b7100000000000000000000000000000000000000000000000000000000600052602260045260246000fd5b6000600282049050600182168061069e57607f821691505b602082108114156106b2576106b1610657565b5b5091905056fea2646970667358221220681e23834559685c4b7895c67294976e1fc4cbd2bd5cbc6264c9c6919cb7041064736f6c63430008090033a2646970667358221220c3bf322fd038810fd1c1d4b617d2d9fdfa3664fa6bcdf969f7948b17da3026ea64736f6c63430008090033",
  "devdoc": {
    "kind": "dev",
    "methods": {},
    "version": 1
  },
  "userdoc": {
    "kind": "user",
    "methods": {},
    "version": 1
  },
  "storageLayout": {
    "storage": [],
    "types": null
  }
}